:100000000C94C6000C94EE000C94EE000C94EE00E0
:100010000C94EE000C94EE000C94EE000C94EE00A8
:100020000C94EE000C94EE000C94EE000C94EE0098
:100030000C94EE000C94EE000C94EE000C94EE0088
:100040000C94CB070C94EE000C9499070C94730756
:100050000C94EE000C94EE000C94EE000C94EE0068
:100060000C9415080C94EE002C20003078005245BA
:1000700041442C0009493243446576696365206434
:100080006964206E6F7420726563656976652065AA
:100090006E6F75676820646174613A2000094932A7
:1000A0004344657669636520636F756C64206E6F89
:1000B00074207265616420737563682061206C61CF
:1000C00072676520627566666572002C2000307864
:1000D000002C20003078002057524954452C00094C
:1000E000493243446576696365206661696C65647D
:1000F00020746F2077726974650009493243446542
:1001000076696365206661696C656420746F207729
:10011000726974650000000000250028002B0004AF
:10012000040404040404040202020202020303039E
:100130000303030102040810204080010204081098
:100140002001020408102000000008000201000045
:100150000304070000000000000000094932434486
:10016000657669636520636F756C64206E6F7420BB
:10017000777269746520737563682061206C6172A1
:10018000676520627566666572002D0911241FBEC1
:10019000CFEFD8E0DEBFCDBF12E0A0E0B1E0E6E4F3
:1001A000F0E202C005900D92A032B107D9F723E02A
:1001B000A0E2B2E001C01D92A938B207E1F710E059
:1001C000C6ECD0E004C02197FE010E94F60EC53CAB
:1001D000D107C9F70E946A090C9421100C94000001
:1001E000982F2091D90281E0213208F03FC0809100
:1001F000B5028111FCCF8091D80232E03093B50274
:100200009093B4029FEF9093B3021092B2022093A6
:10021000B102A8EBB2E0E1E9F2E090E029132DC0D1
:100220001092900290919002880F892B80939002F7
:1002300080918F02813029F510928F028091900277
:100240008093BB0085EC8093BC008091B502823026
:10025000E1F38091B3028F3FB1F08091B30280321D
:10026000A1F08091B302803391F084E01092B70244
:100270001092D9021092B60208953D9131939F5F7A
:10028000CDCF85EEE0CF80E0F1CF82E0EFCF83E00D
:10029000EDCFAF92BF92CF92DF92EF92FF920F938A
:1002A0001F93CF93DF936C017B018B01040F151F0C
:1002B000EB015E01AE18BF08C017D10759F0699174
:1002C000D601ED91FC910190F081E02DC6010995D8
:1002D000892B79F7C501DF91CF911F910F91FF9085
:1002E000EF90DF90CF90BF90AF900895FC01538DB9
:1002F000448D252F30E0842F90E0821B930B541700
:1003000010F0CF96089501970895FC01918D828D8C
:10031000981761F0A28DAE0FBF2FB11D5D968C9125
:10032000928D9F5F9F73928F90E008958FEF9FEF64
:100330000895FC01918D828D981731F0828DE80F20
:10034000F11D858D90E008958FEF9FEF0895FC01DA
:10035000918D228D892F90E0805C9F4F821B9109A7
:100360008F73992708958AED92E00E94A70121E0FA
:10037000892B09F420E0822F089580E090E0892BFA
:1003800029F00E94B30181110C9400000895FC0132
:10039000A48DA80FB92FB11DA35ABF4F2C91848DE6
:1003A00090E001968F739927848FA689B7892C9343
:1003B000A089B1898C91837080648C93938D848D96
:1003C000981306C00288F389E02D80818F7D808399
:1003D0000895EF92FF920F931F93CF93DF93EC0159
:1003E00081E0888F9B8D8C8D98131AC0E889F989DC
:1003F000808185FF15C09FB7F894EE89FF896083DF
:10040000E889F98980818370806480839FBF81E05F
:1004100090E0DF91CF911F910F91FF90EF900895A1
:10042000F62E0B8D10E00F5F1F4F0F731127E02E7C
:100430008C8D8E110CC00FB607FCFACFE889F989B4
:10044000808185FFF5CFCE010E94C701F1CFEB8DF2
:10045000EC0FFD2FF11DE35AFF4FF0829FB7F89488
:100460000B8FEA89FB8980818062CFCF0F931F9326
:10047000CF93DF938C01D0E0C0E0F801EC0FFD1FBB
:100480006491662341F08AED92E00E94E901892B94
:1004900011F02196F2CFCE01DF91CF911F910F91F4
:1004A0000895CF93DF93EC01888D8823B9F0AA8952
:1004B000BB89E889F9898C9185FD03C0808186FD1F
:1004C0000DC00FB607FCF7CF8C9185FFF2CF80816E
:1004D00085FFEDCFCE010E94C701E9CFDF91CF911B
:1004E000089590E0FC01E95BFE4F2491FC01ED5C76
:1004F000FE4F3491FC01E15EFE4FE491EE23C9F022
:10050000222339F0233001F1A8F4213019F12230EF
:1005100029F1F0E0EE0FFF1FEB5EFE4FA591B491C5
:100520008FB7F894EC91611126C030953E233C932F
:100530008FBF08952730A9F02830C9F0243049F73B
:10054000809180008F7D03C0809180008F778093A1
:100550008000DFCF84B58F7784BDDBCF84B58F7DFE
:10056000FBCF8091B0008F778093B000D2CF809185
:10057000B0008F7DF9CF3E2BDACF8230910538F075
:10058000880F991F880F991F05970197F1F7089514
:100590003FB7F8948091890290918A02A0918B02D2
:1005A000B0918C0226B5A89B05C02F3F19F001968B
:1005B000A11DB11D3FBFBA2FA92F982F8827BC01BD
:1005C000CD01620F711D811D911D42E0660F771FE5
:1005D000881F991F4A95D1F708958F929F92AF92E5
:1005E000BF92CF92DF92EF92FF924B015C010E948B
:1005F000C8026B017C010E94C8026C197D098E093A
:100600009F09683E734081059105A8F321E0821A95
:100610009108A108B10888EEC80E83E0D81EE11C3D
:10062000F11C81149104A104B10429F7FF90EF900B
:10063000DF90CF90BF90AF909F908F9008958FB72D
:10064000F894809183028FBF0895AF92BF92CF92AA
:10065000DF92EF92FF920F931F93CF93DF93EC0102
:1006600088819981892B89F06EBD0DB407FEFDCF7D
:10067000BEB48B2DDF91CF911F910F91FF90EF9022
:10068000DF90CF90BF90AF9008958885998511E055
:10069000892B09F010E8AA24A394862F812309F05E
:1006A000A12C062F2C813D814E815F8160E271EA91
:1006B00087E090E00E94B50EF22EB02EE12CC22E03
:1006C000D12CFF2019F0C6010E94BD028A85877FC8
:1006D00009F042C08D858F3F89F0902F912381E0F2
:1006E00009F480E08A1551F0EF85F8898F89992304
:1006F00069F19081892B8083AA24A394E989FA89DE
:100700008081998D892B8083FF2019F0C6010E947A
:10071000BD028E858F3F39F0EB89FC898081988DF1
:10072000892309F0E12AE989FA899081898D8095E8
:10073000892380838E858F3F09F0BE2C888599851B
:10074000892BB9F5110F1111BCCF93CF90818095F2
:1007500089238083A12CD2CFE989FA898081998D60
:10076000892B8083FF2019F0C6010E94BD028D8570
:100770008F3F49F0EF85F8898F89902F9123A9F059
:100780009081892B8083E989FA899081898D809570
:10079000892380838E858F3F69F2EB89FC89808174
:1007A000988D892339F2E12AC5CF908180958923DC
:1007B000E9CF1695C8CF8CBD9DBD089585ED80937A
:1007C000BC008091BC0084FDFCCF1092B50208955E
:1007D000613298F42091B502243089F4609340028C
:1007E000282FA0E2B2E0FC018E2F821B861710F0AA
:1007F00080E0089581918D93F7CF81E0089582E0A4
:1008000008951092B50281E08093B40210928F0295
:1008100061E082E10E94710261E083E10E94710265
:10082000E9EBF0E080818E7F808380818D7F808303
:1008300088E48093B80085E48093BC000895CF934A
:10084000DF93EC018B818823A1F0888191E0909364
:10085000B6028093D8021092B7021092D90281E0BA
:100860000E94F00091E0811190E0892FDF91CF91FB
:10087000089510928E0210928D021092B70210927B
:10088000D9020E94010481E08B83CE010E941F04E3
:10089000982F8111DACFE9CF0895E0918E028091EF
:1008A0008D02E81730F4F0E0ED59FD4F808190E0C3
:1008B00008958FEF9FEF089590918E0280918D02A1
:1008C0002FEF3FEF981748F4E92FF0E0ED59FD4F77
:1008D000208130E09F5F90938E02C901089580913E
:1008E0008D0290918E02891B990B0895CF92DF9211
:1008F000EF92FF920F931F93CF93DF937C01CB0175
:100900008A012091B602222389F0EB016B01C40E0B
:10091000D51ECC15DD0569F06991D701ED91FC91EB
:100920000190F081E02DC7010995F3CF642F0E945B
:10093000E803C801DF91CF911F910F91FF90EF90D5
:10094000DF90CF900895CF93DF931F92CDB7DEB79E
:1009500069832091B6022223F9F02091D902203236
:1009600058F021E030E0FC013383228390E080E006
:100970000F90DF91CF9108958091B702E82FF0E0BA
:10098000E854FD4F998190838F5F8093B7028093E5
:10099000D90281E090E0ECCF61E0CE0101960E94A7
:1009A000E803F7CF90E080E00895FC01019000207B
:1009B000E9F73197AF01481B590BBC018AED92E072
:1009C0000C9449018AE291E00C94D504CF93DF9313
:1009D0000E943602EC010E94E2048C0F9D1FDF9101
:1009E000CF9108958F929F92AF92BF920F931F93D2
:1009F000CF93DF93CDB7DEB7A1970FB6F894DEBFE4
:100A00000FBECDBF19A2423008F44AE08E010F5D3F
:100A10001F4F842E912CB12CA12CA50194010E9472
:100A2000B50EE62FB901CA01EA30F4F4E05DD80151
:100A3000EE938D01232B242B252B79F790E080E07A
:100A4000109719F0CD010E94D504A1960FB6F89425
:100A5000DEBF0FBECDBFDF91CF911F910F91BF9031
:100A6000AF909F908F900895E95CE1CFCF93DF9393
:100A70000E94D504EC010E94E2048C0F9D1FDF91BF
:100A8000CF9108959F92AF92BF92CF92DF92EF9253
:100A9000FF920F931F93CF93DF93EC01962EB72E07
:100AA0006A01A22E89819A81288131E03093B602B1
:100AB0002093D8021092B7021092D902E114F104E7
:100AC00001F101151105E9F0DC01ED91FC910280C5
:100AD000F381E02DA701B8010995E816F90689F020
:100AE0008AEF90E00E94E60480E0DF91CF911F91B1
:100AF0000F91FF90EF90DF90CF90BF90AF909F90BD
:100B0000089589819A81DC01ED91FC910280F38145
:100B1000E02DA601692D7B2D0995C816D90619F07F
:100B20008FED90E0DFCF8CE291E00E943605688186
:100B300070E090E080E040E10E94F20487ED90E0F8
:100B40000E943602E114F104C1F001151105A9F06B
:100B5000E801E00EF11E84ED90E00E9436026991FA
:100B600070E090E080E040E10E94F20481ED90E0CE
:100B70000E943602CE15DF0571F7C92DDB2D10E07E
:100B800000E0C016D106C9F08EEC90E00E9436025B
:100B9000699170E090E080E040E10E94F2048BEC0B
:100BA00090E00E943602C8018F7199274F9711F487
:100BB0000E94E2040F5F1F4FE4CF0E94E2048A2DDF
:100BC0000E94F000882329F08DE291E00E94360512
:100BD0008BCF81E08ACF6F927F928F929F92AF925C
:100BE000BF92CF92DF92EF92FF920F931F93CF931A
:100BF000DF9300D0CDB7DEB7FC016B01642E968188
:100C0000878199838A83A080B180A114B10409F4FB
:100C1000CFC0418550E0D50114968D919C918417E9
:100C2000950728F48BE591E00E94E6040EC0F12CB4
:100C3000E12C10E000E020E0BE016F5F7F4FC501B6
:100C40000E944205082F811102C000E091C0E62CED
:100C5000F12CF501848195818E159F0518F48DE99D
:100C600090E0E2CF8091B5028111FCCFD5019C913B
:100C7000862DB0E2B61508F480E221E02093B5029B
:100C80002093B4023FEF3093B3021092B202380FB8
:100C90003093B1022093900220919002990F922BF1
:100CA0009093900290918F029130B9F510928F023B
:100CB000909190029093BB0095EC9093BC00909122
:100CC000B5029130E1F39091B202981710F480913F
:100CD000B202A1E9B2E0E3E6F2E010E018131FC0AF
:100CE00010928E0210938D021E151F0409F052C03F
:100CF0004601C4018C199D098E159F05A0F4F501CC
:100D000081819281DC01ED91FC910284F385E02DDB
:100D10000995F40181934F01ECCF95EECECF9D91D3
:100D200091931F5FDBCF8EE690E00E943602560162
:100D3000162D1F71C5018C199D098E159F05B0F4E4
:100D40008BE690E00E943602D5016D915D0170E066
:100D500090E080E040E10E94F20488E690E00E948A
:100D600036021F3139F70E94E204E4CF0E94E20408
:100D7000802F0F900F90DF91CF911F910F91FF90D7
:100D8000EF90DF90CF90BF90AF909F908F907F902B
:100D90006F90089584E790E00E943602612F70E022
:100DA00090E080E04AE00E94F2040E94E2044DCF0D
:100DB000028113810115110509F447CF2481358182
:100DC0002115310581F590689983712CA184B12C8E
:100DD000F80180819181892B39F00280F381E02D27
:100DE000808191810E94DB0360E0D8011B968C9189
:100DF0000E947102FE0131964F017F01C7018819DF
:100E000099098A159B05C8F07601C7018C199D09BF
:100E100086159705C8F46FEFC8010E942503F701F6
:100E200081937F01F2CF2230310511F49F77CCCF2F
:100E30002130310551F6906CC7CFD7016D917D01FE
:100E4000C8010E942503DACF61E0D8011B968C917E
:100E50000E94710201E08CCF0F931F93CF93DF9319
:100E6000EC018B01BC01655F7F4F41E00E94EB0507
:100E7000882319F09B85F8019083DF91CF911F9112
:100E80000F910895CF93DF93EC01BC01655F7F4F15
:100E900048850E94EB05882301F1488550E030E049
:100EA00020E060E070E0CB0124173507CCF4982FE8
:100EB000872F762F6627EA85E1110AC0FA01E21B27
:100EC000F30BEC0FFD1FE2856E2B2F5F3F4FECCF36
:100ED000FE01E20FF31FE385F7CF6FEF7FEFCB014A
:100EE000DF91CF9108951F920F920FB60F921124A8
:100EF0002F933F934F935F936F937F938F939F9322
:100F0000AF93BF93EF93FF938AED92E00E94C701E6
:100F1000FF91EF91BF91AF919F918F917F916F91D1
:100F20005F914F913F912F910F900FBE0F901F90A7
:100F300018951F920F920FB60F9211242F938F9333
:100F40009F93EF93FF93E091EA02F091EB0280818F
:100F5000E091F002F091F10282FD1BC0908180913E
:100F6000F3028F5F8F732091F402821741F0E091BA
:100F7000F302F0E0E652FD4F958F8093F302FF916C
:100F8000EF919F918F912F910F900FBE0F901F9017
:100F900018958081F4CF1F920F920FB60F921124F3
:100FA0002F933F938F939F93AF93BF93809185022D
:100FB00090918602A0918702B091880230918402BC
:100FC00023E0230F2D3758F50196A11DB11D209365
:100FD00084028093850290938602A0938702B09347
:100FE00088028091890290918A02A0918B02B0912F
:100FF0008C020196A11DB11D8093890290938A02F3
:10100000A0938B02B0938C02BF91AF919F918F916F
:101010003F912F910F900FBE0F901F90189526E8CB
:10102000230F0296A11DB11DD2CF1F920F920FB6B2
:101030000F9211242F933F934F935F936F937F935E
:101040008F939F93AF93BF93EF93FF938091B900DA
:10105000887F803609F44AC0F0F5883209F4A5C0CB
:1010600018F5803109F499C0B8F4882309F4F2C066
:10107000883009F492C0FF91EF91BF91AF919F9199
:101080008F917F916F915F914F913F912F910F9031
:101090000FBE0F901F901895883109F486C08032DA
:1010A00051F78093B30214C0803409F49BC040F41C
:1010B0008033B9F38833F9F68093B30285ECAEC080
:1010C000803509F483C0883509F494C0883499F6D2
:1010D0000E94DE03D0CF883909F48AC038F58837FA
:1010E00029F050F4883611F0803729F683E0809398
:1010F000B5021092620255C0883809F479C080396F
:1011000019F0803809F0B7CF80916202803208F080
:101110006FC0E091620281E08E0F80936202809145
:10112000BB00F0E0EE5BFD4F80833BC0803B39F0BD
:10113000D0F4803A09F477C0883A09F09CCF84E073
:101140008093B5021092410210924002F0E0E0E07C
:1011500009958091400281110FC081E08093400287
:101160001092200209C0803C09F4A8CF883C09F401
:10117000A5CF883B09F07FCFE091410281E08E0F3F
:1011800080934102F0E0E05EFD4F80818093BB00E0
:10119000909141028091400229C0809190028093F9
:1011A000BB0085EC8093BC0066CF9091B202809129
:1011B000B102981758F5E091B20281E08E0F80934A
:1011C000B202F0E0EF56FD4F8081E9CFE091B2022C
:1011D00081E08E0F8093B2028091BB00F0E0EF5669
:1011E000FD4F80839091B2028091B1029817C8F2AE
:1011F00085E8D8CFE091B20281E08E0F8093B202F1
:101200008091BB00F0E0EF56FD4F80838091B402E7
:1012100081115ECF81E080938F0284EA8093BC00CD
:101220001092B50228CF80916202803230F4E091B2
:101230006202F0E0EE5BFD4F10820E94DE036091DF
:10124000620270E082E492E0F0E0E0E00995109242
:10125000620234CF1092B3023BCFEAEDF2E0138288
:10126000128288EE93E0A0E0B0E084839583A683A9
:10127000B7832AE031E03183208325EC30E03587E5
:10128000248724EC30E03787268720EC30E0318B50
:10129000208B21EC30E0338B228B22EC30E0358B3D
:1012A000248B26EC30E0378B268B118E128E138E1A
:1012B000148EE7E7F3E01382128284839583A6837A
:1012C000B7838CE191E09183808310928403109224
:1012D00083030895CF93DF93CDB7DEB7A8970FB6FA
:1012E000F894DEBF0FBECDBF789484B5826084BD14
:1012F00084B5816084BD85B5826085BD85B581601A
:1013000085BD80916E00816080936E001092810097
:101310008091810082608093810080918100816052
:101320008093810080918000816080938000809113
:10133000B10084608093B1008091B000816080939F
:10134000B00080917A00846080937A0080917A0066
:10135000826080937A0080917A00816080937A0025
:1013600080917A00806880937A001092C100E091A9
:10137000EA02F091EB0282E08083E091E602F091D4
:10138000E7021082E091E802F091E90280E18083B7
:101390001092F202E091EE02F091EF0286E080837B
:1013A000E091EC02F091ED02808180618083E09118
:1013B000EC02F091ED02808188608083E091EC0284
:1013C000F091ED02808180688083E091EC02F091E1
:1013D000ED0280818F7D80838DE391E00E94360550
:1013E0008091830390918403009711F00E94980FDD
:1013F00086E090E00E94FC0E8C018CE4D8018C9376
:1014000087E793E012969C938E93119713961C9204
:10141000139780E290E015969C938E931497109307
:1014200084030093830310928E0210928D02109217
:10143000B7021092D9020E940104FF24F394F8012C
:10144000F382C8010E941F04882309F480C08091A0
:101450008303909184031BA21CA21DA21EA29D8B3C
:101460008C8B1F8A1E8AFD8E8DEF90E09B8F8A8F5A
:101470001E8EFC8ECE0144960E9442076631710595
:101480008105910509F059C08091830390918403EF
:10149000188A198A1A8A1B8A9A8389831C821B825A
:1014A00081E08A8724E030E038872F831B86898794
:1014B0009E012F5F3F4F3901C9010E944207DC01A5
:1014C000CB01807F89604985453008F44BC084E5B5
:1014D00091E00E94360583E691E00E94D504809158
:1014E000830390918403188A198A1A8A1B8A9A8323
:1014F00089831C821B8281E08A8724E030E0388760
:101500002F831B868987C3010E9442076F7077274C
:1015100088279927FB016A30710508F0BAC0ED569B
:10152000F54F0C94F60E450B3C0C3F0C420C450C51
:10153000480C4B0C4E0C510C540CCE0144960E949E
:101540004207683271058105910509F49DCF86E750
:1015500091E00E9436056AE070E080E090E00E9431
:10156000ED02F9CF888B998BAA8BBB8B5B8530E022
:1015700020E0C42ED12C2C153D05A4F451110BC034
:10158000F301E20FF31F8387892F9A2FAB2FBB271D
:101590002F5F3F4FF0CFF601E21BF30BE60DF71D77
:1015A0008287F2CF9F8188859FA388A7E981FA81EE
:1015B0008E01095D1F4F3097C1F0EA84F12C97012D
:1015C0002C0D3D1D848195818217930728F48BE5AE
:1015D00091E00E94E6047BCF21E0A601BE01645F9A
:1015E0007F4FCF010E94420572CFEB80FC80E11457
:1015F000F10409F46CCF2D813E812115310561F58F
:101600009F779FA38A84912CD7018D919C911197EC
:10161000892B39F01296ED91FC91808191810E9485
:10162000DB0360E0F70183850E9471025801C50168
:10163000801B910B88159905D0F08301C80186198C
:1016400097098C159D05D0F4F8016385C7010E94A8
:1016500025030F5F1F4FF2CF2230310511F4906840
:10166000D0CF2130310571F69F779064CACFD50174
:101670006D915D01C7010E942503D9CF61E0D701BB
:101680001B968C910E94710222CF82E991E00E9408
:10169000360511E08AEC91E00E94D5048091830325
:1016A000909184031BA21CA21DA21EA29D8B8C8B59
:1016B0001F8A1E8A1D8FE0E1F0E0FB8FEA8F1E8EED
:1016C0001C8F188A198A1A8A1B8A9A8389831C821A
:1016D0001B821A8721E030E038872F831B86198709
:1016E000BE01695D7F4FC3010E942C07BE01685D8A
:1016F0007F4FCE0144960E942C076FA178A57627D4
:101700006727762785E0759567958A95E1F7072E17
:10171000000C880B990B0E948E0D20E030E040E019
:101720005EE30E94430E6B017C014B015C01AC0146
:101730009B010E94B00E882309F4B9C081EE91E0AC
:101740000E94D5048DEE91E00E94360588EF91E06D
:101750000E94D5048091830390918403188A198A8A
:101760001A8A1B8A9A8389831C821B821A8718868D
:101770001F821B861987C3010E944207C62E660F6F
:10178000DD08EE08FF084AE0C701B601F7FE0DC00C
:101790006DE28AED92E00E94E90166277727CB018E
:1017A0006C197D098E099F094AE00E94F2048DEEB2
:1017B00091E00E9436058FE092E00E94D50480916E
:1017C0008303909184031BA21CA21DA21EA29D8BC9
:1017D0008C8B1F8A1E8A1D8FA6E4B0E0BB8FAA8F58
:1017E0001E8E1C8F188A198A1A8A1B8A9A838983EB
:1017F0001C821B821A87E7E4F0E0F887EF831B86E0
:101800001987BE01695D7F4FC3010E942C07BE018D
:10181000685D7F4FCE0144960E942C072FA188A5BA
:10182000322F282F50E040E060EC75E682E590E032
:101830000E94D70ECA01B901882799274AE00E9461
:10184000F2048AE192E00E9436058CE291E00E9467
:10185000360564E670E080E090E00E94ED0220E052
:1018600030E0232B09F416CF0E94B301882309F43A
:1018700011CF0E9400000ECF8AE991E008CF81EAE3
:1018800091E005CF88EA91E002CF8FEA91E0FFCEA8
:1018900085EC91E0FCCE84EB91E0F9CE89EB91E010
:1018A000F6CE8EEB91E0F3CE84EC91E0F0CE160113
:1018B0002701E89457F82FEF3FEF4FE75FE7C201AA
:1018C000B1010E94B00E81110DC02FEF3FEF4FE725
:1018D0005FE7C201B1010E94580D18161CF485EE95
:1018E00091E02ECF2FEF3FEF4FE75FE4C701B60146
:1018F0000E943E0E18161CF489EE91E021CF2FEFC6
:101900003FEF4FE75FECC701B6010E94580D87FD1E
:10191000F3CF20E030E0A901C701B6010E94580DC5
:1019200087FF0BC06DE28AED92E00E94E90146015B
:101930005701B7FAB094B7F8B0942AE037ED43EA0C
:101940005BE3C501B4010E94EC0C4B015C010E94F9
:101950005D0D6B017C010E948C0D9B01AC01C501EA
:10196000B4010E94EB0C4B015C014AE0C701B601D7
:101970000E94F2046EE28AED92E00E94E90120E00A
:1019800030E040E251E4C501B4010E94430E4B0136
:101990005C010E945D0D6B01F12CE12C4AE0C70156
:1019A000B6010E94F204C701B6010E948C0D9B0192
:1019B000AC01C501B4010E94EB0C20E030E040E234
:1019C00051E40E94430E0E945D0D90E080E04AE0E9
:1019D0000E94F204B7CE5058BB27AA270E94030DDD
:1019E0000C94040E0E94F60D38F00E94FD0D20F0BC
:1019F00039F49F3F19F426F40C94F30D0EF4E0959E
:101A0000E7FB0C94ED0DE92F0E94150E58F3BA1761
:101A1000620773078407950720F079F4A6F50C9404
:101A2000370E0EF4E0950B2EBA2FA02D0B01B90145
:101A300090010C01CA01A0011124FF27591B99F044
:101A4000593F50F4503E68F11A16F040A22F232F50
:101A5000342F4427585FF3CF469537952795A795A0
:101A6000F0405395C9F77EF41F16BA0B620B730B47
:101A7000840BBAF09150A1F0FF0FBB1F661F771FB8
:101A8000881FC2F70EC0BA0F621F731F841F48F46D
:101A9000879577956795B795F7959E3F08F0B0CFF6
:101AA0009395880F08F09927EE0F979587950895DD
:101AB0000E94C90D08F481E008950E941D0E88F06F
:101AC0009F5798F0B92F9927B751B0F0E1F0660F02
:101AD000771F881F991F1AF0BA95C9F714C0B13043
:101AE00091F00E94370EB1E008950C94370E672FE5
:101AF000782F8827B85F39F0B93FCCF38695779572
:101B00006795B395D9F73EF490958095709561955A
:101B10007F4F8F4F9F4F0895E89409C097FB3EF485
:101B200090958095709561957F4F8F4F9F4F99232A
:101B3000A9F0F92F96E9BB279395F69587957795A8
:101B40006795B795F111F8CFFAF4BB0F11F460FF68
:101B50001BC06F5F7F4F8F4F9F4F16C0882311F0C0
:101B600096E911C0772321F09EE8872F762F05C0D4
:101B7000662371F096E8862F70E060E02AF09A956F
:101B8000660F771F881FDAF7880F9695879597F964
:101B90000895990F0008550FAA0BE0E8FEEF1616FE
:101BA0001706E807F907C0F012161306E407F50751
:101BB00098F0621B730B840B950B39F40A2661F0C5
:101BC000232B242B252B21F408950A2609F4A14068
:101BD000A6958FEF811D811D089597F99F6780E875
:101BE00070E060E008959FEF80EC089500240A946F
:101BF0001616170618060906089500240A941216E8
:101C00001306140605060895092E0394000C11F41A
:101C1000882352F0BB0F40F4BF2B11F460FF04C0C7
:101C20006F5F7F4F8F4F9F4F089557FD9058440F20
:101C3000551F59F05F3F71F04795880F97FB991F2B
:101C400061F09F3F79F087950895121613061406E8
:101C5000551FF2CF4695F1DF08C016161706180675
:101C6000991FF1CF86957105610508940895E89450
:101C7000BB2766277727CB0197F908950E94C90DE6
:101C800008F48FEF08950E94560E0C94040E0E94E3
:101C9000F60D38F00E94FD0D20F0952311F00C9404
:101CA000ED0D0C94F30D11240C94380E0E94150EBA
:101CB00070F3959FC1F3950F50E0551F629FF0019F
:101CC000729FBB27F00DB11D639FAA27F00DB11DB8
:101CD000AA1F649F6627B00DA11D661F829F222741
:101CE000B00DA11D621F739FB00DA11D621F839FC8
:101CF000A00D611D221F749F3327A00D611D231F9E
:101D0000849F600D211D822F762F6A2F11249F57EB
:101D100050409AF0F1F088234AF0EE0FFF1FBB1FEE
:101D2000661F771F881F91505040A9F79E3F5105AD
:101D300080F00C94ED0D0C94380E5F3FE4F3983E68
:101D4000D4F3869577956795B795F795E7959F5F57
:101D5000C1F7FE2B880F911D9695879597F90895E9
:101D60000E94C90D880B990B0895A1E21A2EAA1B97
:101D7000BB1BFD010DC0AA1FBB1FEE1FFF1FA2173B
:101D8000B307E407F50720F0A21BB30BE40BF50B38
:101D9000661F771F881F991F1A9469F760957095C1
:101DA000809590959B01AC01BD01CF010895052E52
:101DB00097FB1EF400940E94EE0E57FD07D00E9480
:101DC000B50E07FC03D04EF40C94EE0E50954095E2
:101DD000309521953F4F4F4F5F4F089590958095D7
:101DE000709561957F4F8F4F9F4F0895EE0FFF1FA6
:101DF0000590F491E02D09940F931F93CF93DF93F7
:101E00008230910510F482E090E0E0918703F09138
:101E1000880330E020E0B0E0A0E0309799F421158D
:101E2000310509F44AC0281B390B24303105D8F597
:101E30008A819B816115710589F1FB0193838283FE
:101E4000FE0111C040815181028113814817590759
:101E5000E0F04817590799F4109761F012960C9327
:101E6000129713961C933296CF01DF91CF911F9159
:101E70000F9108950093870310938803F4CF2115E1
:101E8000310551F04217530738F0A901DB019A01DF
:101E9000BD01DF01F801C1CFEF01F9CF90938803B5
:101EA00080938703CDCFFE01E20FF31F81939193BF
:101EB0002250310939832883D7CF2091850330916F
:101EC0008603232B41F420910201309103013093CA
:101ED0008603209385032091000130910101211593
:101EE000310541F42DB73EB74091040150910501F1
:101EF000241B350BE0918503F0918603E217F3076D
:101F0000A0F42E1B3F0B2817390778F0AC014E5F69
:101F10005F4F2417350748F04E0F5F1F509386031D
:101F200040938503819391939FCFF0E0E0E09CCFB5
:101F3000CF93DF930097E9F0FC013297138212826E
:101F4000A0918703B0918803ED0130E020E0109765
:101F5000A1F420813181820F931F2091850330915C
:101F600086032817390709F061C0F0938603E093D0
:101F70008503DF91CF910895EA01CE17DF07E8F5D9
:101F80004A815B819E0141155105B1F7E901FB834F
:101F9000EA8349915991C40FD51FEC17FD0761F4ED
:101FA000808191810296840F951FE901998388832E
:101FB000828193819B838A83F0E0E0E012968D9189
:101FC0009C9113970097B9F52D913C911197CD01F4
:101FD0000296820F931F2091850330918603281764
:101FE000390739F6309751F510928803109287031C
:101FF000B0938603A0938503BCCFD383C283408173
:102000005181840F951FC817D90761F44E5F5F4F48
:1020100088819981480F591F518340838A819B8110
:10202000938382832115310509F0B0CFF0938803A3
:10203000E09387039ECFFD01DC01C0CF13821282A3
:06204000D7CFF894FFCF9A
:1020460000008903800000000000E90149017601D3
:102056005102A7018501990100000000A30476043E
:10206600D2044C046F045C044D040D0A00466169F9
:102076006C656420746F2073656E64210041646131
:10208600667275697420454D43323130312074656E
:1020960073742100454D433231303120466F756EE1
:1020A60064210044617461207261746520736574F3
:1020B60020746F3A20004661696C656420746F2055
:1020C60066696E6420454D4332313031206368695C
:1020D6007000312F31365F485A00312F385F485A29
:1020E60000312F345F485A00312F325F485A003191
:1020F60020485A003420485A003820485A003136C1
:1021060020485A00333220485A0045787465726E6A
:10211600616C2054656D70657261747572653A20E4
:10212600006E616E00696E66006F766600206465FB
:102136006772656573204300496E7465726E616CE3
:102146002054656D70657261747572653A2000463B
:10215600616E2052504D3A3A20002052504D0000F8
:00000001FF
